{
  "_format": "hh-sol-artifact-1",
  "contractName": "IdentityVerification",
  "sourceName": "contracts/IdentityVerification.sol",
  "abi": [
    {
      "anonymous": false,
      "inputs": [
        {
          "indexed": false,
          "internalType": "string",
          "name": "action",
          "type": "string"
        }
      ],
      "name": "IdentityActionLogged",
      "type": "event"
    },
    {
      "anonymous": false,
      "inputs": [
        {
          "indexed": true,
          "internalType": "address",
          "name": "user",
          "type": "address"
        },
        {
          "indexed": false,
          "internalType": "string",
          "name": "name",
          "type": "string"
        },
        {
          "indexed": false,
          "internalType": "string",
          "name": "email",
          "type": "string"
        }
      ],
      "name": "IdentityAdded",
      "type": "event"
    },
    {
      "anonymous": false,
      "inputs": [
        {
          "indexed": true,
          "internalType": "address",
          "name": "user",
          "type": "address"
        }
      ],
      "name": "IdentityDeleted",
      "type": "event"
    },
    {
      "anonymous": false,
      "inputs": [
        {
          "indexed": true,
          "internalType": "address",
          "name": "user",
          "type": "address"
        }
      ],
      "name": "IdentityRevoked",
      "type": "event"
    },
    {
      "anonymous": false,
      "inputs": [
        {
          "indexed": true,
          "internalType": "address",
          "name": "user",
          "type": "address"
        },
        {
          "indexed": false,
          "internalType": "string",
          "name": "name",
          "type": "string"
        },
        {
          "indexed": false,
          "internalType": "string",
          "name": "email",
          "type": "string"
        }
      ],
      "name": "IdentityUpdated",
      "type": "event"
    },
    {
      "anonymous": false,
      "inputs": [
        {
          "indexed": true,
          "internalType": "address",
          "name": "user",
          "type": "address"
        }
      ],
      "name": "IdentityVerified",
      "type": "event"
    },
    {
      "inputs": [
        {
          "internalType": "string",
          "name": "_name",
          "type": "string"
        },
        {
          "internalType": "string",
          "name": "_email",
          "type": "string"
        }
      ],
      "name": "addIdentity",
      "outputs": [],
      "stateMutability": "nonpayable",
      "type": "function"
    },
    {
      "inputs": [],
      "name": "deleteIdentity",
      "outputs": [],
      "stateMutability": "nonpayable",
      "type": "function"
    },
    {
      "inputs": [
        {
          "internalType": "address",
          "name": "_user",
          "type": "address"
        }
      ],
      "name": "getIdentity",
      "outputs": [
        {
          "components": [
            {
              "internalType": "address",
              "name": "user",
              "type": "address"
            },
            {
              "internalType": "string",
              "name": "name",
              "type": "string"
            },
            {
              "internalType": "string",
              "name": "email",
              "type": "string"
            },
            {
              "internalType": "bool",
              "name": "isVerified",
              "type": "bool"
            },
            {
              "internalType": "bool",
              "name": "exists",
              "type": "bool"
            }
          ],
          "internalType": "struct IdentityVerification.Identity",
          "name": "",
          "type": "tuple"
        }
      ],
      "stateMutability": "view",
      "type": "function"
    },
    {
      "inputs": [
        {
          "internalType": "address",
          "name": "",
          "type": "address"
        }
      ],
      "name": "identities",
      "outputs": [
        {
          "internalType": "address",
          "name": "user",
          "type": "address"
        },
        {
          "internalType": "string",
          "name": "name",
          "type": "string"
        },
        {
          "internalType": "string",
          "name": "email",
          "type": "string"
        },
        {
          "internalType": "bool",
          "name": "isVerified",
          "type": "bool"
        },
        {
          "internalType": "bool",
          "name": "exists",
          "type": "bool"
        }
      ],
      "stateMutability": "view",
      "type": "function"
    },
    {
      "inputs": [
        {
          "internalType": "address",
          "name": "_user",
          "type": "address"
        }
      ],
      "name": "isIdentityVerified",
      "outputs": [
        {
          "internalType": "bool",
          "name": "",
          "type": "bool"
        }
      ],
      "stateMutability": "view",
      "type": "function"
    },
    {
      "inputs": [],
      "name": "revokeIdentity",
      "outputs": [],
      "stateMutability": "nonpayable",
      "type": "function"
    },
    {
      "inputs": [
        {
          "internalType": "string",
          "name": "_name",
          "type": "string"
        },
        {
          "internalType": "string",
          "name": "_email",
          "type": "string"
        }
      ],
      "name": "updateIdentity",
      "outputs": [],
      "stateMutability": "nonpayable",
      "type": "function"
    },
    {
      "inputs": [],
      "name": "verifyIdentity",
      "outputs": [],
      "stateMutability": "nonpayable",
      "type": "function"
    }
  ],
  "bytecode": "0x608060405234801561001057600080fd5b506118d8806100206000396000f3fe608060405234801561001057600080fd5b50600436106100885760003560e01c8063e16efc6d1161005b578063e16efc6d146100ed578063e8731c3214610109578063f63ac76214610113578063f653b81e1461014357610088565b80632fea7b811461008d5780639ce7874b146100bd578063b6427210146100c7578063dd4db94f146100e3575b600080fd5b6100a760048036038101906100a29190611072565b610177565b6040516100b491906111d6565b60405180910390f35b6100c561040d565b005b6100e160048036038101906100dc919061132d565b6105ce565b005b6100eb610826565b005b6101076004803603810190610102919061132d565b610991565b005b610111610b4f565b005b61012d60048036038101906101289190611072565b610cba565b60405161013a91906113b4565b60405180910390f35b61015d60048036038101906101589190611072565b610da0565b60405161016e959493929190611428565b60405180910390f35b61017f610f5a565b6000808373ffffffffffffffffffffffffffffffffffffffff1673ffffffffffffffffffffffffffffffffffffffff16815260200190815260200160002060030160019054906101000a900460ff1661020d576040517f08c379a0000000000000000000000000000000000000000000000000000000008152600401610204906114d5565b60405180910390fd5b6000808373ffffffffffffffffffffffffffffffffffffffff1673ffffffffffffffffffffffffffffffffffffffff1681526020019081526020016000206040518060a00160405290816000820160009054906101000a900473ffffffffffffffffffffffffffffffffffffffff1673ffffffffffffffffffffffffffffffffffffffff1673ffffffffffffffffffffffffffffffffffffffff1681526020016001820180546102bc90611524565b80601f01602080910402602001604051908101604052809291908181526020018280546102e890611524565b80156103355780601f1061030a57610100808354040283529160200191610335565b820191906000526020600020905b81548152906001019060200180831161031857829003601f168201915b5050505050815260200160028201805461034e90611524565b80601f016020809104026020016040519081016040528092919081815260200182805461037a90611524565b80156103c75780601f1061039c576101008083540402835291602001916103c7565b820191906000526020600020905b8154815290600101906020018083116103aa57829003601f168201915b505050505081526020016003820160009054906101000a900460ff161515151581526020016003820160019054906101000a900460ff1615151515815250509050919050565b6000803373ffffffffffffffffffffffffffffffffffffffff1673ffffffffffffffffffffffffffffffffffffffff16815260200190815260200160002060030160019054906101000a900460ff1661049b576040517f08c379a0000000000000000000000000000000000000000000000000000000008152600401610492906114d5565b60405180910390fd5b6000803373ffffffffffffffffffffffffffffffffffffffff1673ffffffffffffffffffffffffffffffffffffffff168152602001908152602001600020600080820160006101000a81549073ffffffffffffffffffffffffffffffffffffffff02191690556001820160006105119190610fa3565b6002820160006105219190610fa3565b6003820160006101000a81549060ff02191690556003820160016101000a81549060ff021916905550503373ffffffffffffffffffffffffffffffffffffffff167fc24bb9f4ebb7a8b8d37e375af6ac3f7e39d0218d2042bbd057d783048a904cd860405160405180910390a26105cc6040518060400160405280601081526020017f4964656e746974792044656c6574656400000000000000000000000000000000815250610f20565b565b6000803373ffffffffffffffffffffffffffffffffffffffff1673ffffffffffffffffffffffffffffffffffffffff16815260200190815260200160002060030160019054906101000a900460ff161561065d576040517f08c379a0000000000000000000000000000000000000000000000000000000008152600401610654906115a1565b60405180910390fd5b6040518060a001604052803373ffffffffffffffffffffffffffffffffffffffff168152602001838152602001828152602001600015158152602001600115158152506000803373ffffffffffffffffffffffffffffffffffffffff1673ffffffffffffffffffffffffffffffffffffffff16815260200190815260200160002060008201518160000160006101000a81548173ffffffffffffffffffffffffffffffffffffffff021916908373ffffffffffffffffffffffffffffffffffffffff160217905550602082015181600101908161073a9190611777565b5060408201518160020190816107509190611777565b5060608201518160030160006101000a81548160ff02191690831515021790555060808201518160030160016101000a81548160ff0219169083151502179055509050503373ffffffffffffffffffffffffffffffffffffffff167fc4b28c639a4e4162300789b68ce924a9410c3f5aa5c0547962376234c0dd91a783836040516107dc929190611849565b60405180910390a26108226040518060400160405280600e81526020017f4964656e74697479204164646564000000000000000000000000000000000000815250610f20565b5050565b6000803373ffffffffffffffffffffffffffffffffffffffff1673ffffffffffffffffffffffffffffffffffffffff16815260200190815260200160002060030160019054906101000a900460ff166108b4576040517f08c379a00000000000000000000000000000000000000000000000000000000081526004016108ab906114d5565b60405180910390fd5b60008060003373ffffffffffffffffffffffffffffffffffffffff1673ffffffffffffffffffffffffffffffffffffffff16815260200190815260200160002060030160006101000a81548160ff0219169083151502179055503373ffffffffffffffffffffffffffffffffffffffff167fccf550e579fbeb7d56da9a0175f8d4526535cab139e73b592516f1916d4075dd60405160405180910390a261098f6040518060400160405280601081526020017f4964656e74697479205265766f6b656400000000000000000000000000000000815250610f20565b565b6000803373ffffffffffffffffffffffffffffffffffffffff1673ffffffffffffffffffffffffffffffffffffffff16815260200190815260200160002060030160019054906101000a900460ff16610a1f576040517f08c379a0000000000000000000000000000000000000000000000000000000008152600401610a16906114d5565b60405180910390fd5b816000803373ffffffffffffffffffffffffffffffffffffffff1673ffffffffffffffffffffffffffffffffffffffff1681526020019081526020016000206001019081610a6d9190611777565b50806000803373ffffffffffffffffffffffffffffffffffffffff1673ffffffffffffffffffffffffffffffffffffffff1681526020019081526020016000206002019081610abc9190611777565b503373ffffffffffffffffffffffffffffffffffffffff167ffb96589d3b33bea42070ac9f2c42e02179f8d63c02a81c828772540ebe54bb098383604051610b05929190611849565b60405180910390a2610b4b6040518060400160405280601081526020017f4964656e74697479205570646174656400000000000000000000000000000000815250610f20565b5050565b6000803373ffffffffffffffffffffffffffffffffffffffff1673ffffffffffffffffffffffffffffffffffffffff16815260200190815260200160002060030160019054906101000a900460ff16610bdd576040517f08c379a0000000000000000000000000000000000000000000000000000000008152600401610bd4906114d5565b60405180910390fd5b60016000803373ffffffffffffffffffffffffffffffffffffffff1673ffffffffffffffffffffffffffffffffffffffff16815260200190815260200160002060030160006101000a81548160ff0219169083151502179055503373ffffffffffffffffffffffffffffffffffffffff167f02f93fdaafad8edad1ca75101b1fbda62e64ab9afc26d0ea801ccf6ef02c09ab60405160405180910390a2610cb86040518060400160405280601181526020017f4964656e74697479205665726966696564000000000000000000000000000000815250610f20565b565b60008060008373ffffffffffffffffffffffffffffffffffffffff1673ffffffffffffffffffffffffffffffffffffffff16815260200190815260200160002060030160019054906101000a900460ff16610d4a576040517f08c379a0000000000000000000000000000000000000000000000000000000008152600401610d41906114d5565b60405180910390fd5b6000808373ffffffffffffffffffffffffffffffffffffffff1673ffffffffffffffffffffffffffffffffffffffff16815260200190815260200160002060030160009054906101000a900460ff169050919050565b60006020528060005260406000206000915090508060000160009054906101000a900473ffffffffffffffffffffffffffffffffffffffff1690806001018054610de990611524565b80601f0160208091040260200160405190810160405280929190818152602001828054610e1590611524565b8015610e625780601f10610e3757610100808354040283529160200191610e62565b820191906000526020600020905b815481529060010190602001808311610e4557829003601f168201915b505050505090806002018054610e7790611524565b80601f0160208091040260200160405190810160405280929190818152602001828054610ea390611524565b8015610ef05780601f10610ec557610100808354040283529160200191610ef0565b820191906000526020600020905b815481529060010190602001808311610ed357829003601f168201915b5050505050908060030160009054906101000a900460ff16908060030160019054906101000a900460ff16905085565b7f25d23fb97da0ce6a75f9c37af342091e31f1767552a7d2fef6ee60dc32cb8cf681604051610f4f9190611880565b60405180910390a150565b6040518060a00160405280600073ffffffffffffffffffffffffffffffffffffffff16815260200160608152602001606081526020016000151581526020016000151581525090565b508054610faf90611524565b6000825580601f10610fc15750610fe0565b601f016020900490600052602060002090810190610fdf9190610fe3565b5b50565b5b80821115610ffc576000816000905550600101610fe4565b5090565b6000604051905090565b600080fd5b600080fd5b600073ffffffffffffffffffffffffffffffffffffffff82169050919050565b600061103f82611014565b9050919050565b61104f81611034565b811461105a57600080fd5b50565b60008135905061106c81611046565b92915050565b6000602082840312156110885761108761100a565b5b60006110968482850161105d565b91505092915050565b6110a881611034565b82525050565b600081519050919050565b600082825260208201905092915050565b60005b838110156110e85780820151818401526020810190506110cd565b60008484015250505050565b6000601f19601f8301169050919050565b6000611110826110ae565b61111a81856110b9565b935061112a8185602086016110ca565b611133816110f4565b840191505092915050565b60008115159050919050565b6111538161113e565b82525050565b600060a083016000830151611171600086018261109f565b50602083015184820360208601526111898282611105565b915050604083015184820360408601526111a38282611105565b91505060608301516111b8606086018261114a565b5060808301516111cb608086018261114a565b508091505092915050565b600060208201905081810360008301526111f08184611159565b905092915050565b600080fd5b600080fd5b7f4e487b7100000000000000000000000000000000000000000000000000000000600052604160045260246000fd5b61123a826110f4565b810181811067ffffffffffffffff8211171561125957611258611202565b5b80604052505050565b600061126c611000565b90506112788282611231565b919050565b600067ffffffffffffffff82111561129857611297611202565b5b6112a1826110f4565b9050602081019050919050565b82818337600083830152505050565b60006112d06112cb8461127d565b611262565b9050828152602081018484840111156112ec576112eb6111fd565b5b6112f78482856112ae565b509392505050565b600082601f830112611314576113136111f8565b5b81356113248482602086016112bd565b91505092915050565b600080604083850312156113445761134361100a565b5b600083013567ffffffffffffffff8111156113625761136161100f565b5b61136e858286016112ff565b925050602083013567ffffffffffffffff81111561138f5761138e61100f565b5b61139b858286016112ff565b9150509250929050565b6113ae8161113e565b82525050565b60006020820190506113c960008301846113a5565b92915050565b6113d881611034565b82525050565b600082825260208201905092915050565b60006113fa826110ae565b61140481856113de565b93506114148185602086016110ca565b61141d816110f4565b840191505092915050565b600060a08201905061143d60008301886113cf565b818103602083015261144f81876113ef565b9050818103604083015261146381866113ef565b905061147260608301856113a5565b61147f60808301846113a5565b9695505050505050565b7f4964656e7469747920646f6573206e6f74206578697374000000000000000000600082015250565b60006114bf6017836113de565b91506114ca82611489565b602082019050919050565b600060208201905081810360008301526114ee816114b2565b9050919050565b7f4e487b7100000000000000000000000000000000000000000000000000000000600052602260045260246000fd5b6000600282049050600182168061153c57607f821691505b60208210810361154f5761154e6114f5565b5b50919050565b7f4964656e7469747920616c726561647920657869737473000000000000000000600082015250565b600061158b6017836113de565b915061159682611555565b602082019050919050565b600060208201905081810360008301526115ba8161157e565b9050919050565b60008190508160005260206000209050919050565b60006020601f8301049050919050565b600082821b905092915050565b6000600883026116237fffffffffffffffffffffffffffffffffffffffffffffffffffffffffffffffff826115e6565b61162d86836115e6565b95508019841693508086168417925050509392505050565b6000819050919050565b6000819050919050565b600061167461166f61166a84611645565b61164f565b611645565b9050919050565b6000819050919050565b61168e83611659565b6116a261169a8261167b565b8484546115f3565b825550505050565b600090565b6116b76116aa565b6116c2818484611685565b505050565b5b818110156116e6576116db6000826116af565b6001810190506116c8565b5050565b601f82111561172b576116fc816115c1565b611705846115d6565b81016020851015611714578190505b611728611720856115d6565b8301826116c7565b50505b505050565b600082821c905092915050565b600061174e60001984600802611730565b1980831691505092915050565b6000611767838361173d565b9150826002028217905092915050565b611780826110ae565b67ffffffffffffffff81111561179957611798611202565b5b6117a38254611524565b6117ae8282856116ea565b600060209050601f8311600181146117e157600084156117cf578287015190505b6117d9858261175b565b865550611841565b601f1984166117ef866115c1565b60005b82811015611817578489015182556001820191506020850194506020810190506117f2565b868310156118345784890151611830601f89168261173d565b8355505b6001600288020188555050505b505050505050565b6000604082019050818103600083015261186381856113ef565b9050818103602083015261187781846113ef565b90509392505050565b6000602082019050818103600083015261189a81846113ef565b90509291505056fea264697066735822122093430e77af12d080c3ea11b6ef662ffc9c70da7af75bdb13cb07fd6c04f2eac264736f6c63430008180033",
  "linkReferences": {},
  "deployedLinkReferences": {}
}