{
  "address": "0x5FbDB2315678afecb367f032d93F642f64180aa3",
  "abi": [
    {
      "inputs": [],
      "stateMutability": "nonpayable",
      "type": "constructor"
    },
    {
      "anonymous": false,
      "inputs": [
        {
          "indexed": false,
          "internalType": "string",
          "name": "action",
          "type": "string"
        }
      ],
      "name": "IdentityActionLogged",
      "type": "event"
    },
    {
      "anonymous": false,
      "inputs": [
        {
          "indexed": true,
          "internalType": "address",
          "name": "user",
          "type": "address"
        },
        {
          "indexed": false,
          "internalType": "string",
          "name": "name",
          "type": "string"
        },
        {
          "indexed": false,
          "internalType": "string",
          "name": "email",
          "type": "string"
        }
      ],
      "name": "IdentityAdded",
      "type": "event"
    },
    {
      "anonymous": false,
      "inputs": [
        {
          "indexed": true,
          "internalType": "address",
          "name": "user",
          "type": "address"
        }
      ],
      "name": "IdentityDeleted",
      "type": "event"
    },
    {
      "anonymous": false,
      "inputs": [
        {
          "indexed": true,
          "internalType": "address",
          "name": "user",
          "type": "address"
        }
      ],
      "name": "IdentityRevoked",
      "type": "event"
    },
    {
      "anonymous": false,
      "inputs": [
        {
          "indexed": true,
          "internalType": "address",
          "name": "user",
          "type": "address"
        },
        {
          "indexed": false,
          "internalType": "string",
          "name": "name",
          "type": "string"
        },
        {
          "indexed": false,
          "internalType": "string",
          "name": "email",
          "type": "string"
        }
      ],
      "name": "IdentityUpdated",
      "type": "event"
    },
    {
      "anonymous": false,
      "inputs": [
        {
          "indexed": true,
          "internalType": "address",
          "name": "user",
          "type": "address"
        }
      ],
      "name": "IdentityVerified",
      "type": "event"
    },
    {
      "anonymous": false,
      "inputs": [
        {
          "indexed": true,
          "internalType": "address",
          "name": "account",
          "type": "address"
        },
        {
          "indexed": false,
          "internalType": "enum IdentityVerification.Role",
          "name": "role",
          "type": "uint8"
        }
      ],
      "name": "RoleAssigned",
      "type": "event"
    },
    {
      "inputs": [
        {
          "internalType": "address",
          "name": "_user",
          "type": "address"
        },
        {
          "internalType": "string",
          "name": "_name",
          "type": "string"
        },
        {
          "internalType": "string",
          "name": "_email",
          "type": "string"
        }
      ],
      "name": "addIdentity",
      "outputs": [],
      "stateMutability": "nonpayable",
      "type": "function"
    },
    {
      "inputs": [],
      "name": "admin",
      "outputs": [
        {
          "internalType": "address",
          "name": "",
          "type": "address"
        }
      ],
      "stateMutability": "view",
      "type": "function"
    },
    {
      "inputs": [
        {
          "internalType": "address",
          "name": "account",
          "type": "address"
        },
        {
          "internalType": "enum IdentityVerification.Role",
          "name": "role",
          "type": "uint8"
        }
      ],
      "name": "assignRole",
      "outputs": [],
      "stateMutability": "nonpayable",
      "type": "function"
    },
    {
      "inputs": [
        {
          "internalType": "address",
          "name": "_user",
          "type": "address"
        }
      ],
      "name": "deleteIdentity",
      "outputs": [],
      "stateMutability": "nonpayable",
      "type": "function"
    },
    {
      "inputs": [
        {
          "internalType": "address",
          "name": "_user",
          "type": "address"
        }
      ],
      "name": "getIdentity",
      "outputs": [
        {
          "components": [
            {
              "internalType": "address",
              "name": "user",
              "type": "address"
            },
            {
              "internalType": "string",
              "name": "name",
              "type": "string"
            },
            {
              "internalType": "string",
              "name": "email",
              "type": "string"
            },
            {
              "internalType": "bool",
              "name": "isVerified",
              "type": "bool"
            },
            {
              "internalType": "bool",
              "name": "exists",
              "type": "bool"
            }
          ],
          "internalType": "struct IdentityVerification.Identity",
          "name": "",
          "type": "tuple"
        }
      ],
      "stateMutability": "view",
      "type": "function"
    },
    {
      "inputs": [
        {
          "internalType": "address",
          "name": "",
          "type": "address"
        }
      ],
      "name": "identities",
      "outputs": [
        {
          "internalType": "address",
          "name": "user",
          "type": "address"
        },
        {
          "internalType": "string",
          "name": "name",
          "type": "string"
        },
        {
          "internalType": "string",
          "name": "email",
          "type": "string"
        },
        {
          "internalType": "bool",
          "name": "isVerified",
          "type": "bool"
        },
        {
          "internalType": "bool",
          "name": "exists",
          "type": "bool"
        }
      ],
      "stateMutability": "view",
      "type": "function"
    },
    {
      "inputs": [
        {
          "internalType": "address",
          "name": "_user",
          "type": "address"
        }
      ],
      "name": "isIdentityVerified",
      "outputs": [
        {
          "internalType": "bool",
          "name": "",
          "type": "bool"
        }
      ],
      "stateMutability": "view",
      "type": "function"
    },
    {
      "inputs": [
        {
          "internalType": "address",
          "name": "_user",
          "type": "address"
        }
      ],
      "name": "revokeIdentity",
      "outputs": [],
      "stateMutability": "nonpayable",
      "type": "function"
    },
    {
      "inputs": [
        {
          "internalType": "address",
          "name": "",
          "type": "address"
        }
      ],
      "name": "roles",
      "outputs": [
        {
          "internalType": "enum IdentityVerification.Role",
          "name": "",
          "type": "uint8"
        }
      ],
      "stateMutability": "view",
      "type": "function"
    },
    {
      "inputs": [
        {
          "internalType": "address",
          "name": "_user",
          "type": "address"
        },
        {
          "internalType": "string",
          "name": "_name",
          "type": "string"
        },
        {
          "internalType": "string",
          "name": "_email",
          "type": "string"
        }
      ],
      "name": "updateIdentity",
      "outputs": [],
      "stateMutability": "nonpayable",
      "type": "function"
    },
    {
      "inputs": [
        {
          "internalType": "address",
          "name": "_user",
          "type": "address"
        }
      ],
      "name": "verifyIdentity",
      "outputs": [],
      "stateMutability": "nonpayable",
      "type": "function"
    }
  ],
  "transactionHash": "0x72de80b535c14f9750bba50fef078c9f916f4c5241a6750885cf9063b92da9ca",
  "args": [],
  "numDeployments": 1,
  "solcInputHash": "5e438e72a7ce92f67ce3a9f0411d1b6c",
  "bytecode": "0x60806040523480156200001157600080fd5b5033600160006101000a81548173ffffffffffffffffffffffffffffffffffffffff021916908373ffffffffffffffffffffffffffffffffffffffff1602179055506001600260003373ffffffffffffffffffffffffffffffffffffffff1673ffffffffffffffffffffffffffffffffffffffff16815260200190815260200160002060006101000a81548160ff02191690836002811115620000b957620000b862000115565b5b02179055503373ffffffffffffffffffffffffffffffffffffffff167f4ac36fa53f167ceb85964be512e01de2a3b8bdb9862f917da079deeeff689b38600160405162000107919062000195565b60405180910390a2620001b2565b7f4e487b7100000000000000000000000000000000000000000000000000000000600052602160045260246000fd5b6003811062000158576200015762000115565b5b50565b60008190506200016b8262000144565b919050565b60006200017d826200015b565b9050919050565b6200018f8162000170565b82525050565b6000602082019050620001ac600083018462000184565b92915050565b61211780620001c26000396000f3fe608060405234801561001057600080fd5b50600436106100a95760003560e01c80639eaa8154116100715780639eaa815414610162578063a8d29d1d1461017e578063b5b90fd91461019a578063f63ac762146101b6578063f653b81e146101e6578063f851a4401461021a576100a9565b80630ebddd17146100ae578063215522b7146100ca5780632fea7b81146100e6578063630a195b146101165780639937464214610132575b600080fd5b6100c860048036038101906100c39190611668565b610238565b005b6100e460048036038101906100df91906117db565b610457565b005b61010060048036038101906100fb9190611668565b6106c9565b60405161010d919061198c565b60405180910390f35b610130600480360381019061012b91906119d3565b61095f565b005b61014c60048036038101906101479190611668565b610acb565b6040516101599190611a8a565b60405180910390f35b61017c600480360381019061017791906117db565b610aeb565b005b61019860048036038101906101939190611668565b610df7565b005b6101b460048036038101906101af9190611668565b61106c565b005b6101d060048036038101906101cb9190611668565b61128a565b6040516101dd9190611ab4565b60405180910390f35b61020060048036038101906101fb9190611668565b611370565b604051610211959493929190611b28565b60405180910390f35b6102226114f0565b60405161022f9190611b89565b60405180910390f35b6001600281111561024c5761024b611a13565b5b600260003373ffffffffffffffffffffffffffffffffffffffff1673ffffffffffffffffffffffffffffffffffffffff16815260200190815260200160002060009054906101000a900460ff1660028111156102ab576102aa611a13565b5b146102eb576040517f08c379a00000000000000000000000000000000000000000000000000000000081526004016102e290611c16565b60405180910390fd5b6000808273ffffffffffffffffffffffffffffffffffffffff1673ffffffffffffffffffffffffffffffffffffffff16815260200190815260200160002060030160019054906101000a900460ff16610379576040517f08c379a000000000000000000000000000000000000000000000000000000000815260040161037090611c82565b60405180910390fd5b60008060008373ffffffffffffffffffffffffffffffffffffffff1673ffffffffffffffffffffffffffffffffffffffff16815260200190815260200160002060030160006101000a81548160ff0219169083151502179055508073ffffffffffffffffffffffffffffffffffffffff167fccf550e579fbeb7d56da9a0175f8d4526535cab139e73b592516f1916d4075dd60405160405180910390a26104546040518060400160405280601081526020017f4964656e74697479205265766f6b656400000000000000000000000000000000815250611516565b50565b6001600281111561046b5761046a611a13565b5b600260003373ffffffffffffffffffffffffffffffffffffffff1673ffffffffffffffffffffffffffffffffffffffff16815260200190815260200160002060009054906101000a900460ff1660028111156104ca576104c9611a13565b5b1461050a576040517f08c379a000000000000000000000000000000000000000000000000000000000815260040161050190611c16565b60405180910390fd5b6000808473ffffffffffffffffffffffffffffffffffffffff1673ffffffffffffffffffffffffffffffffffffffff16815260200190815260200160002060030160019054906101000a900460ff16610598576040517f08c379a000000000000000000000000000000000000000000000000000000000815260040161058f90611c82565b60405180910390fd5b816000808573ffffffffffffffffffffffffffffffffffffffff1673ffffffffffffffffffffffffffffffffffffffff16815260200190815260200160002060010190816105e69190611eb8565b50806000808573ffffffffffffffffffffffffffffffffffffffff1673ffffffffffffffffffffffffffffffffffffffff16815260200190815260200160002060020190816106359190611eb8565b508273ffffffffffffffffffffffffffffffffffffffff167ffb96589d3b33bea42070ac9f2c42e02179f8d63c02a81c828772540ebe54bb09838360405161067e929190611f8a565b60405180910390a26106c46040518060400160405280601081526020017f4964656e74697479205570646174656400000000000000000000000000000000815250611516565b505050565b6106d1611550565b6000808373ffffffffffffffffffffffffffffffffffffffff1673ffffffffffffffffffffffffffffffffffffffff16815260200190815260200160002060030160019054906101000a900460ff1661075f576040517f08c379a000000000000000000000000000000000000000000000000000000000815260040161075690611c82565b60405180910390fd5b6000808373ffffffffffffffffffffffffffffffffffffffff1673ffffffffffffffffffffffffffffffffffffffff1681526020019081526020016000206040518060a00160405290816000820160009054906101000a900473ffffffffffffffffffffffffffffffffffffffff1673ffffffffffffffffffffffffffffffffffffffff1673ffffffffffffffffffffffffffffffffffffffff16815260200160018201805461080e90611cd1565b80601f016020809104026020016040519081016040528092919081815260200182805461083a90611cd1565b80156108875780601f1061085c57610100808354040283529160200191610887565b820191906000526020600020905b81548152906001019060200180831161086a57829003601f168201915b505050505081526020016002820180546108a090611cd1565b80601f01602080910402602001604051908101604052809291908181526020018280546108cc90611cd1565b80156109195780601f106108ee57610100808354040283529160200191610919565b820191906000526020600020905b8154815290600101906020018083116108fc57829003601f168201915b505050505081526020016003820160009054906101000a900460ff161515151581526020016003820160019054906101000a900460ff1615151515815250509050919050565b6001600281111561097357610972611a13565b5b600260003373ffffffffffffffffffffffffffffffffffffffff1673ffffffffffffffffffffffffffffffffffffffff16815260200190815260200160002060009054906101000a900460ff1660028111156109d2576109d1611a13565b5b14610a12576040517f08c379a0000000000000000000000000000000000000000000000000000000008152600401610a0990611c16565b60405180910390fd5b80600260008473ffffffffffffffffffffffffffffffffffffffff1673ffffffffffffffffffffffffffffffffffffffff16815260200190815260200160002060006101000a81548160ff02191690836002811115610a7457610a73611a13565b5b02179055508173ffffffffffffffffffffffffffffffffffffffff167f4ac36fa53f167ceb85964be512e01de2a3b8bdb9862f917da079deeeff689b3882604051610abf9190611a8a565b60405180910390a25050565b60026020528060005260406000206000915054906101000a900460ff1681565b60016002811115610aff57610afe611a13565b5b600260003373ffffffffffffffffffffffffffffffffffffffff1673ffffffffffffffffffffffffffffffffffffffff16815260200190815260200160002060009054906101000a900460ff166002811115610b5e57610b5d611a13565b5b14610b9e576040517f08c379a0000000000000000000000000000000000000000000000000000000008152600401610b9590611c16565b60405180910390fd5b6000808473ffffffffffffffffffffffffffffffffffffffff1673ffffffffffffffffffffffffffffffffffffffff16815260200190815260200160002060030160019054906101000a900460ff1615610c2d576040517f08c379a0000000000000000000000000000000000000000000000000000000008152600401610c249061200d565b60405180910390fd5b6040518060a001604052808473ffffffffffffffffffffffffffffffffffffffff168152602001838152602001828152602001600015158152602001600115158152506000808573ffffffffffffffffffffffffffffffffffffffff1673ffffffffffffffffffffffffffffffffffffffff16815260200190815260200160002060008201518160000160006101000a81548173ffffffffffffffffffffffffffffffffffffffff021916908373ffffffffffffffffffffffffffffffffffffffff1602179055506020820151816001019081610d0a9190611eb8565b506040820151816002019081610d209190611eb8565b5060608201518160030160006101000a81548160ff02191690831515021790555060808201518160030160016101000a81548160ff0219169083151502179055509050508273ffffffffffffffffffffffffffffffffffffffff167fc4b28c639a4e4162300789b68ce924a9410c3f5aa5c0547962376234c0dd91a78383604051610dac929190611f8a565b60405180910390a2610df26040518060400160405280600e81526020017f4964656e74697479204164646564000000000000000000000000000000000000815250611516565b505050565b60016002811115610e0b57610e0a611a13565b5b600260003373ffffffffffffffffffffffffffffffffffffffff1673ffffffffffffffffffffffffffffffffffffffff16815260200190815260200160002060009054906101000a900460ff166002811115610e6a57610e69611a13565b5b14610eaa576040517f08c379a0000000000000000000000000000000000000000000000000000000008152600401610ea190611c16565b60405180910390fd5b6000808273ffffffffffffffffffffffffffffffffffffffff1673ffffffffffffffffffffffffffffffffffffffff16815260200190815260200160002060030160019054906101000a900460ff16610f38576040517f08c379a0000000000000000000000000000000000000000000000000000000008152600401610f2f90611c82565b60405180910390fd5b6000808273ffffffffffffffffffffffffffffffffffffffff1673ffffffffffffffffffffffffffffffffffffffff168152602001908152602001600020600080820160006101000a81549073ffffffffffffffffffffffffffffffffffffffff0219169055600182016000610fae9190611599565b600282016000610fbe9190611599565b6003820160006101000a81549060ff02191690556003820160016101000a81549060ff021916905550508073ffffffffffffffffffffffffffffffffffffffff167fc24bb9f4ebb7a8b8d37e375af6ac3f7e39d0218d2042bbd057d783048a904cd860405160405180910390a26110696040518060400160405280601081526020017f4964656e746974792044656c6574656400000000000000000000000000000000815250611516565b50565b60028081111561107f5761107e611a13565b5b600260003373ffffffffffffffffffffffffffffffffffffffff1673ffffffffffffffffffffffffffffffffffffffff16815260200190815260200160002060009054906101000a900460ff1660028111156110de576110dd611a13565b5b1461111e576040517f08c379a00000000000000000000000000000000000000000000000000000000081526004016111159061209f565b60405180910390fd5b6000808273ffffffffffffffffffffffffffffffffffffffff1673ffffffffffffffffffffffffffffffffffffffff16815260200190815260200160002060030160019054906101000a900460ff166111ac576040517f08c379a00000000000000000000000000000000000000000000000000000000081526004016111a390611c82565b60405180910390fd5b60016000808373ffffffffffffffffffffffffffffffffffffffff1673ffffffffffffffffffffffffffffffffffffffff16815260200190815260200160002060030160006101000a81548160ff0219169083151502179055508073ffffffffffffffffffffffffffffffffffffffff167f02f93fdaafad8edad1ca75101b1fbda62e64ab9afc26d0ea801ccf6ef02c09ab60405160405180910390a26112876040518060400160405280601181526020017f4964656e74697479205665726966696564000000000000000000000000000000815250611516565b50565b60008060008373ffffffffffffffffffffffffffffffffffffffff1673ffffffffffffffffffffffffffffffffffffffff16815260200190815260200160002060030160019054906101000a900460ff1661131a576040517f08c379a000000000000000000000000000000000000000000000000000000000815260040161131190611c82565b60405180910390fd5b6000808373ffffffffffffffffffffffffffffffffffffffff1673ffffffffffffffffffffffffffffffffffffffff16815260200190815260200160002060030160009054906101000a900460ff169050919050565b60006020528060005260406000206000915090508060000160009054906101000a900473ffffffffffffffffffffffffffffffffffffffff16908060010180546113b990611cd1565b80601f01602080910402602001604051908101604052809291908181526020018280546113e590611cd1565b80156114325780601f1061140757610100808354040283529160200191611432565b820191906000526020600020905b81548152906001019060200180831161141557829003601f168201915b50505050509080600201805461144790611cd1565b80601f016020809104026020016040519081016040528092919081815260200182805461147390611cd1565b80156114c05780601f10611495576101008083540402835291602001916114c0565b820191906000526020600020905b8154815290600101906020018083116114a357829003601f168201915b5050505050908060030160009054906101000a900460ff16908060030160019054906101000a900460ff16905085565b600160009054906101000a900473ffffffffffffffffffffffffffffffffffffffff1681565b7f25d23fb97da0ce6a75f9c37af342091e31f1767552a7d2fef6ee60dc32cb8cf68160405161154591906120bf565b60405180910390a150565b6040518060a00160405280600073ffffffffffffffffffffffffffffffffffffffff16815260200160608152602001606081526020016000151581526020016000151581525090565b5080546115a590611cd1565b6000825580601f106115b757506115d6565b601f0160209004906000526020600020908101906115d591906115d9565b5b50565b5b808211156115f25760008160009055506001016115da565b5090565b6000604051905090565b600080fd5b600080fd5b600073ffffffffffffffffffffffffffffffffffffffff82169050919050565b60006116358261160a565b9050919050565b6116458161162a565b811461165057600080fd5b50565b6000813590506116628161163c565b92915050565b60006020828403121561167e5761167d611600565b5b600061168c84828501611653565b91505092915050565b600080fd5b600080fd5b6000601f19601f8301169050919050565b7f4e487b7100000000000000000000000000000000000000000000000000000000600052604160045260246000fd5b6116e88261169f565b810181811067ffffffffffffffff82111715611707576117066116b0565b5b80604052505050565b600061171a6115f6565b905061172682826116df565b919050565b600067ffffffffffffffff821115611746576117456116b0565b5b61174f8261169f565b9050602081019050919050565b82818337600083830152505050565b600061177e6117798461172b565b611710565b90508281526020810184848401111561179a5761179961169a565b5b6117a584828561175c565b509392505050565b600082601f8301126117c2576117c1611695565b5b81356117d284826020860161176b565b91505092915050565b6000806000606084860312156117f4576117f3611600565b5b600061180286828701611653565b935050602084013567ffffffffffffffff81111561182357611822611605565b5b61182f868287016117ad565b925050604084013567ffffffffffffffff8111156118505761184f611605565b5b61185c868287016117ad565b9150509250925092565b61186f8161162a565b82525050565b600081519050919050565b600082825260208201905092915050565b60005b838110156118af578082015181840152602081019050611894565b60008484015250505050565b60006118c682611875565b6118d08185611880565b93506118e0818560208601611891565b6118e98161169f565b840191505092915050565b60008115159050919050565b611909816118f4565b82525050565b600060a0830160008301516119276000860182611866565b506020830151848203602086015261193f82826118bb565b9150506040830151848203604086015261195982826118bb565b915050606083015161196e6060860182611900565b5060808301516119816080860182611900565b508091505092915050565b600060208201905081810360008301526119a6818461190f565b905092915050565b600381106119bb57600080fd5b50565b6000813590506119cd816119ae565b92915050565b600080604083850312156119ea576119e9611600565b5b60006119f885828601611653565b9250506020611a09858286016119be565b9150509250929050565b7f4e487b7100000000000000000000000000000000000000000000000000000000600052602160045260246000fd5b60038110611a5357611a52611a13565b5b50565b6000819050611a6482611a42565b919050565b6000611a7482611a56565b9050919050565b611a8481611a69565b82525050565b6000602082019050611a9f6000830184611a7b565b92915050565b611aae816118f4565b82525050565b6000602082019050611ac96000830184611aa5565b92915050565b611ad88161162a565b82525050565b600082825260208201905092915050565b6000611afa82611875565b611b048185611ade565b9350611b14818560208601611891565b611b1d8161169f565b840191505092915050565b600060a082019050611b3d6000830188611acf565b8181036020830152611b4f8187611aef565b90508181036040830152611b638186611aef565b9050611b726060830185611aa5565b611b7f6080830184611aa5565b9695505050505050565b6000602082019050611b9e6000830184611acf565b92915050565b7f4f6e6c792061646d696e2063616e20706572666f726d2074686973206163746960008201527f6f6e000000000000000000000000000000000000000000000000000000000000602082015250565b6000611c00602283611ade565b9150611c0b82611ba4565b604082019050919050565b60006020820190508181036000830152611c2f81611bf3565b9050919050565b7f4964656e7469747920646f6573206e6f74206578697374000000000000000000600082015250565b6000611c6c601783611ade565b9150611c7782611c36565b602082019050919050565b60006020820190508181036000830152611c9b81611c5f565b9050919050565b7f4e487b7100000000000000000000000000000000000000000000000000000000600052602260045260246000fd5b60006002820490506001821680611ce957607f821691505b602082108103611cfc57611cfb611ca2565b5b50919050565b60008190508160005260206000209050919050565b60006020601f8301049050919050565b600082821b905092915050565b600060088302611d647fffffffffffffffffffffffffffffffffffffffffffffffffffffffffffffffff82611d27565b611d6e8683611d27565b95508019841693508086168417925050509392505050565b6000819050919050565b6000819050919050565b6000611db5611db0611dab84611d86565b611d90565b611d86565b9050919050565b6000819050919050565b611dcf83611d9a565b611de3611ddb82611dbc565b848454611d34565b825550505050565b600090565b611df8611deb565b611e03818484611dc6565b505050565b5b81811015611e2757611e1c600082611df0565b600181019050611e09565b5050565b601f821115611e6c57611e3d81611d02565b611e4684611d17565b81016020851015611e55578190505b611e69611e6185611d17565b830182611e08565b50505b505050565b600082821c905092915050565b6000611e8f60001984600802611e71565b1980831691505092915050565b6000611ea88383611e7e565b9150826002028217905092915050565b611ec182611875565b67ffffffffffffffff811115611eda57611ed96116b0565b5b611ee48254611cd1565b611eef828285611e2b565b600060209050601f831160018114611f225760008415611f10578287015190505b611f1a8582611e9c565b865550611f82565b601f198416611f3086611d02565b60005b82811015611f5857848901518255600182019150602085019450602081019050611f33565b86831015611f755784890151611f71601f891682611e7e565b8355505b6001600288020188555050505b505050505050565b60006040820190508181036000830152611fa48185611aef565b90508181036020830152611fb88184611aef565b90509392505050565b7f4964656e7469747920616c726561647920657869737473000000000000000000600082015250565b6000611ff7601783611ade565b915061200282611fc1565b602082019050919050565b6000602082019050818103600083015261202681611fea565b9050919050565b7f4f6e6c792076657269666965722063616e20706572666f726d2074686973206160008201527f6374696f6e000000000000000000000000000000000000000000000000000000602082015250565b6000612089602583611ade565b91506120948261202d565b604082019050919050565b600060208201905081810360008301526120b88161207c565b9050919050565b600060208201905081810360008301526120d98184611aef565b90509291505056fea2646970667358221220807b208254779b4dd0104b799632e2ebef2f41f29be3fe24c53ab5b9cfb8442364736f6c63430008180033",
  "devdoc": {
    "kind": "dev",
    "methods": {},
    "version": 1
  },
  "userdoc": {
    "kind": "user",
    "methods": {},
    "version": 1
  },
  "storageLayout": {
    "storage": [
      {
        "astId": 17,
        "contract": "contracts/IdentityVerification.sol:IdentityVerification",
        "label": "identities",
        "offset": 0,
        "slot": "0",
        "type": "t_mapping(t_address,t_struct(Identity)12_storage)"
      },
      {
        "astId": 19,
        "contract": "contracts/IdentityVerification.sol:IdentityVerification",
        "label": "admin",
        "offset": 0,
        "slot": "1",
        "type": "t_address"
      },
      {
        "astId": 28,
        "contract": "contracts/IdentityVerification.sol:IdentityVerification",
        "label": "roles",
        "offset": 0,
        "slot": "2",
        "type": "t_mapping(t_address,t_enum(Role)23)"
      }
    ],
    "types": {
      "t_address": {
        "encoding": "inplace",
        "label": "address",
        "numberOfBytes": "20"
      },
      "t_bool": {
        "encoding": "inplace",
        "label": "bool",
        "numberOfBytes": "1"
      },
      "t_enum(Role)23": {
        "encoding": "inplace",
        "label": "enum IdentityVerification.Role",
        "numberOfBytes": "1"
      },
      "t_mapping(t_address,t_enum(Role)23)": {
        "encoding": "mapping",
        "key": "t_address",
        "label": "mapping(address => enum IdentityVerification.Role)",
        "numberOfBytes": "32",
        "value": "t_enum(Role)23"
      },
      "t_mapping(t_address,t_struct(Identity)12_storage)": {
        "encoding": "mapping",
        "key": "t_address",
        "label": "mapping(address => struct IdentityVerification.Identity)",
        "numberOfBytes": "32",
        "value": "t_struct(Identity)12_storage"
      },
      "t_string_storage": {
        "encoding": "bytes",
        "label": "string",
        "numberOfBytes": "32"
      },
      "t_struct(Identity)12_storage": {
        "encoding": "inplace",
        "label": "struct IdentityVerification.Identity",
        "members": [
          {
            "astId": 3,
            "contract": "contracts/IdentityVerification.sol:IdentityVerification",
            "label": "user",
            "offset": 0,
            "slot": "0",
            "type": "t_address"
          },
          {
            "astId": 5,
            "contract": "contracts/IdentityVerification.sol:IdentityVerification",
            "label": "name",
            "offset": 0,
            "slot": "1",
            "type": "t_string_storage"
          },
          {
            "astId": 7,
            "contract": "contracts/IdentityVerification.sol:IdentityVerification",
            "label": "email",
            "offset": 0,
            "slot": "2",
            "type": "t_string_storage"
          },
          {
            "astId": 9,
            "contract": "contracts/IdentityVerification.sol:IdentityVerification",
            "label": "isVerified",
            "offset": 0,
            "slot": "3",
            "type": "t_bool"
          },
          {
            "astId": 11,
            "contract": "contracts/IdentityVerification.sol:IdentityVerification",
            "label": "exists",
            "offset": 1,
            "slot": "3",
            "type": "t_bool"
          }
        ],
        "numberOfBytes": "128"
      }
    }
  }
}